:100000000C9461020C9499020C9499020C9499023C
:100010000C9499020C9499020C9499020C949902F4
:100020000C9499020C9499020C94011E0C94D31E0A
:100030000C940E190C9499020C9499020C94990248
:100040000C9499020C9499020C9499020C949902C4
:100050000C9499020C9497190C9499020C9499029F
:100060000C9499020C9499020C9499020C949902A4
:100070000C9499020C9499020C9499020C94990294
:100080000C9499020C9499020C9499020C94990284
:100090000C9499020C9499020C9499020C94990274
:1000A0000C9499020C9499020C949902B605B60529
:1000B000E205E20550066E065D075D077306E90678
:1000C000FA06FA063315A5153B15051509153F1552
:1000D0000C1542154D1517159B151B1551151F15A0
:1000E00055157F1523155915891529155F1569159E
:1000F00010154615131549152E156415751595150A
:10010000971501153715AE154117471735173B17CA
:100110004D17531759173B1F621F5A20621F5A2051
:10012000AE1FD11F5A202820372068747470733A8C
:100130002F2F716D6B2E666D2F01012800514D4BD5
:10014000206973207468652062657374207468691F
:100150006E67206576657221004E002152E2000034
:10016000002C000000E40051004B0000001B0019AF
:100170000011003600380052004900000016000946
:10018000000B000E00330028004A0000001A001582
:10019000001C000C00130030004D0035001F002132
:1001A000002300250027002E0029001E0020002229
:1001B00000240026002D002A002B00140008001740
:1001C00000180012002F0031003900040007000A57
:1001D000000D000F0034000000E1001D00060005C6
:1001E0000010003700E5004C00E000E3002C0000A8
:1001F000000000E60050004F006C0001000100000C
:1002000000010000000100AA006B000000010001D5
:1002100000010001000100A9006A000000010001C6
:10022000000100010001000100690000000100015F
:10023000000100010001000100680001003B003DD9
:10024000003F0041004300450001003A003C003EF1
:1002500000400042004400010001000100010001D3
:100260000001000100010001000100010001000186
:100270000001000100010000000100010001000177
:1002800000010001000100010001000100AE0000BA
:10029000000000017CAC00AB00000000000000008A
:1002A000002A2B28000000000000000000000000D1
:1002B0000000000029000000002C1E342021222410
:1002C000342627252E362D3738271E1F202122239E
:1002D0002425263333362E37381F04050607080930
:1002E0000A0B0C0D0E0F10111213141516171819F6
:1002F0001A1B1C1D2F3130232D3504050607080954
:100300000A0B0C0D0E0F10111213141516171819D5
:100310001A1B1C1D2F3130354C000000000000005E
:1003200000000000000000000000000000000000CD
:10033000000000000000000000000000007E0F0030
:10034000D4FFFFFFC7000000781A034E0065007459
:1003500000520061007A0072005F00520065007672
:10036000003200000014034D00610065006C007352
:1003700000740072006F006D00000004030904099E
:10038000023B00020100A0FA090400000103010180
:100390000009211101000122400007058103080026
:1003A00001090401000103000000092111010001FD
:1003B00022B600070582032000011201000200009E
:1003C0000008EDFE244001000102000105010902C0
:1003D000A10185020901A1000509190129081500DB
:1003E0002501950875018102050109300931158142
:1003F000257F95027508810609381581257F9501AD
:1004000075088106050C0A38021581257F9501754E
:10041000088106C0C005010980A101850319012AD0
:10042000B700150126B700950175108100C0050CB5
:100430000901A101850419012AA002150126A002C3
:10044000950175108100C005010906A10185060509
:100450000719E029E71500250195087501810205B6
:1004600007190029EF1500250195F0750181020596
:1004700008190129059505750191029501750391EA
:1004800001C005010906A101050719E029E71500CA
:1004900025019508750181029501750881010507FF
:1004A000190029FF150026FF009506750881000533
:1004B00008190129059505750191029501750391AA
:1004C00001C011241FBECFEFDAE0DEBFCDBF04B6FE
:1004D00003FE18C08091BA029091BB02A091BC02A9
:1004E000B091BD028730904BA740B04B59F41092A9
:1004F000BA021092BB021092BC021092BD02E0E060
:10050000F8E3099511E0A0E0B1E0EEE8F2E402C002
:1005100005900D92A039B107D9F722E0A0E9B1E02A
:1005200001C01D92AA3BB207E1F70E9445120C944C
:1005300045210C94000081152EE7920721F08130AF
:100540009E4749F011C0FB018281882369F060E079
:100550008DE391E007C0FB018281882329F060E0F0
:100560008AE291E00E94241681E008958230C8F466
:100570006A30B8F44830A8F4E62FF0E09AE0899F9A
:10058000E00DF11D112483E0EE0FFF1F8A95E1F7C6
:10059000E40FF11DEE0FFF1FE75AFE4F8591949176
:1005A000089580E090E008950E94B602089581E0E9
:1005B00008950E949B02089508950E94DC02089508
:1005C000A5E0B0E0E6EEF2E00C94B12049835A8356
:1005D0003091970189819A81311114C0662359F0B5
:1005E000222349F00E943B09182F682F89819A81A4
:1005F0000E94170903C00E942909182F69817A8176
:10060000812F04C00E943B0969817A810E94E90F11
:100610002596E3E00C94CD20FC01262F40815181EA
:100620006281738184810E94E002089581E00895CF
:10063000CF93DF93EC0160E00E940C03BE010E94A7
:10064000DD02DF91CF9108950E94141108950E9458
:100650000E11089508950E94E0070E942A032FEFCB
:1006600084E39CE0215080409040E1F700C000000E
:1006700008950E942B030E94BD1908950E942B0328
:100680000E94E11908950F931F93CF93DF938C017C
:1006900061E00E940C03EC01B8010E94D90288239A
:1006A00009F442C0B801CE010E9429178823E1F164
:1006B000B801CE010E94DD148823B1F1B801CE014A
:1006C0000E948F16882381F1F8018281882341F1ED
:1006D000C3308CE7D807D1F040F4C115FCE7DF0741
:1006E00091F0C130DC47A1F01BC0CB35ECE7DE0751
:1006F000A9F0CC35FCE7DF0771F0CA35DC4781F49F
:100700000E94760D0DC00E9439030EC00E947E0D1E
:100710000E943E0309C00E946C0D02C00E947A0D27
:10072000C8010E94D70201C080E0DF91CF911F91E4
:100730000F9108950E94E7180E94C40308950E9433
:10074000C8030E94F018089508950E94A403089514
:1007500081E008950895CF93DF93D82F0E94A803D6
:10076000C82F882319F08D2F0E94AA038C2FDF91A8
:10077000CF9108950895CF93C82F0E94A5038C2F81
:100780000E94AB03CF91089580E00E94BB030895BF
:100790000E9476170E94BB030895CF930E9476179C
:1007A000C82F80919201C81779F0C09392010E94DE
:1007B0007C196093930170939401809395019093B9
:1007C00096018C2F0E94BB03CF910895ABE0B0E05F
:1007D000ECEEF3E00C94B2204F83588769877A8758
:1007E0008B8761110E94B40C9E012F5F3F4F86E002
:1007F000F90111928A95E9F785E0FE013796D90152
:1008000001900D928A95E1F789819A814C815D81F1
:10081000452B31F09F3F31F491E08F3F19F403C035
:1008200091E001C090E090FF09C049815A816B813D
:100830007C818D819E810E94E00B05C0C9010E94D0
:1008400016038111F2CF2B96E2E00C94CE20FC012E
:10085000808191810E946D090895662319F00E949C
:10086000CA1202C00E9425130E949C130895CF93C0
:10087000882309F4A4C0C82F8238C1F40E947617D7
:1008800081FD9DC069E380910001909101010E946A
:100890008B180E94D80C2FEF87EE93E021508040F8
:1008A0009040E1F700C0000069E319C0833801F50A
:1008B0000E94761780FD83C063E5809100019091CE
:1008C00001010E948B180E94D80C2FEF81EE94E05A
:1008D000215080409040E1F700C0000063E5809126
:1008E0000001909101010E9499180E94D80C67C0E4
:1008F0008438C1F40E94761782FD61C067E480915C
:100900000001909101010E948B180E94D80C2FEFDA
:1009100081EE94E0215080409040E1F700C000005B
:1009200067E4DDCF8CEF8C0F813AD0F46C2F80918F
:100930000001909101010E940B18882349F06C2F4F
:1009400080910001909101010E9499180E94D80C99
:100950006C2F80910001909101010E948B18C5CFEE
:1009600080E28C0F883048F4C77081E001C0880FA6
:10097000CA95EAF70E94970CB8CFEBE5EC0FE3308D
:1009800040F4F0E0EB5BFE4F808190E00E94AB17FB
:1009900016C0E8E5EC0FE93150F4F0E0EE0FFF1F70
:1009A000ED5EFE4F808191810E94D01708C083E3E5
:1009B0008C0F833120F461E08C2F0E942D04CF91A5
:1009C0000895882309F468C0823879F40E94761764
:1009D00081FF62C069E380910001909101010E9452
:1009E0008B180E94D80C69E310C08338B9F40E94B8
:1009F000761780FF51C063E580910001909101015D
:100A00000E948B180E94D80C63E5809100019091A0
:100A100001010E9499180E94D80C0895843879F435
:100A20000E94761782FF38C067E4809100019091A0
:100A300001010E948B180E94D80C67E4E6CF9CEF5E
:100A4000980F913A10F4682FE0CF90E2980F983009
:100A500050F4877091E001C0990F8A95EAF7892FC9
:100A60000E949D0CD8CF9BE5980F933028F480E02E
:100A700090E00E94AB17089598E5980F993128F4FB
:100A800080E090E00E94D017089593E3980F93318F
:100A900018F460E00E942D0408951F93CF93DF9314
:100AA000182FEB010E943704209741F08FE99FE057
:100AB0000197F1F700C000002197F6CF812F0E9427
:100AC000E104DF91CF911F910895893319F060E01F
:100AD00070E002C060E570E00E944D050895882333
:100AE00021F00E94970C0E94D80C0895882321F0D1
:100AF0000E949D0C0E94D80C0895A0E0B0E0E3E8AD
:100B0000F5E00C94AC207C01162FC72FFC01D2819C
:100B1000058102950F700E948D0C8823B9F0DD23AA
:100B2000A9F08C2F807F803421F080E2810F883003
:100B300068F08091940282FF09C082E00E943A0D21
:100B40000E948D0C91E0D82ED92601C0D12CCC2E3C
:100B5000C2948FE0C8228C2D90E08C30910508F073
:100B6000ACC1FC01EA5AFF4F0C949C208C2F807F73
:100B7000CF70882311F0C295C07FDD2399F0CC237C
:100B800009F487C180E2810F883010F0111104C090
:100B90008C2F0E94970C03C08C2F0E94A70C0E94E0
:100BA000D80C77C1812F0E94E104CC2309F485C1C0
:100BB00080E2810F883038F1112329F18C2F0E94B7
:100BC000AD0C24C08C2F807FCF70803211F0C29585
:100BD000C07F112319F01130D1F143C080919402EC
:100BE00082FD17C0DD2349F0CC2329F08C2F0E9411
:100BF000970C0E94D80C80E04DC180E00E94E10477
:100C0000CC2309F45AC18C2F0E949D0C0E94D80C51
:100C100054C1DD2371F0002341F0013031F40E9412
:100C2000B70C8C2B0E94C10C48C10E94B70C8C2BB6
:100C300023C0011103C00E94CE0C2EC0013009F464
:100C40003CC18C2F0E9476050E94CE0C36C1DD235C
:100C500021F0063008F031C10EC0053008F02DC17A
:100C60001BC0DD2361F0002331F0F701858180FF97
:100C700010C18F7085838C2F0E946F051EC10023C9
:100C800059F0193309F016C1FFEF27EE83E0F15058
:100C900020408040E1F70CC18C2F0E9476050DC1E9
:100CA0008C2F86958695837019F0813061F005C18F
:100CB000DD2321F0812F9C2F937002C080E090E013
:100CC0000E94AB1702C1DD2321F0812F9C2F93706E
:100CD00002C080E090E00E94D017F7C06D2F812FF6
:100CE0000E942D04F2C08C2F8370B1F5D111E9C0A0
:100CF000412F429546954770440F440F812F8F70C6
:100D000090E09C01042E02C0220F331F0A94E2F7E8
:100D100014FF0AC08FE090E002C0880F991F4A9527
:100D2000E2F78095909502C080E090E0C695C69568
:100D3000C370822B932BC23049F058F4C13019F0A4
:100D40000E944A08BEC00E944108BBC00E945308CE
:100D5000B8C00E943E08B5C0DD2319F08C2F817009
:100D600001C08695882309F4ACC0412F4295469571
:100D70004770440F440F812F8F7090E09C01042E28
:100D800002C0220F331F0A94E2F714FF0AC08FE05B
:100D900090E002C0880F991F4A95E2F780959095E0
:100DA00002C080E090E0C695C695C370822B932B5D
:100DB000C23049F058F4C13019F00E94B20881C025
:100DC0000E94A9087EC00E94BB087BC00E945F08E9
:100DD00078C0CF70DD2339F08C2F0E947708812FE7
:100DE0000E946F056EC0812F0E9476058C2F0E9495
:100DF000870867C0123F21F128F4103F41F0113FEE
:100E0000C1F043C0133F19F1143F79F03EC0DD2318
:100E100041F0053008F051C08C2F8F710E94990865
:100E20004CC0063008F049C0F7CF8091940282FD93
:100E300018C0DD2339F08C2F8F710E9477083DC0D8
:100E4000DD23C9F38C2F8F710E94870836C0DD2304
:100E500029F08C2F8F710E946B082FC00E946608AA
:100E60002CC0DD2349F0CF718C2F0E94770863E0FE
:100E70008C2F0E941C0D21C081E00E943A0D02308F
:100E8000E0F082E00E943A0D18C0DD2331F000232B
:100E900091F2812F0E94370410C0002399F2193378
:100EA00049F49FEFE7EEF3E09150E040F040E1F7C6
:100EB00000C00000812F0E94E10488EF8C0D843077
:100EC00020F40E9476170E94BB03DD2089F00E9467
:100ED000890C80FD0DC0F70112820E94830C0E94D4
:100EE0007708C7010E9495070E94830C0E9487081B
:100EF000CDB7DEB7E8E00C94C8200F931F93CF93D3
:100F0000DF93EC01688179818A810E9478098C01E4
:100F10000E94C4080E942F08B801CE010E947D05DE
:100F2000DF91CF911F910F910895CF93DF93EC0143
:100F3000988189812B813C81232B31F08F3F31F4C3
:100F400081E09F3F19F403C081E001C080E080FD93
:100F50001AC0CE010E94430381110FC00E948D0C64
:100F6000882389F08A81882371F08091940282FF1E
:100F70000AC082E00E943A0D06C0CE010E947D07A1
:100F8000CE010E941803DF91CF91089580E090E098
:100F90000E94AB1780E090E00E94D0170E94B40C32
:100FA0000E94D80C0E94BB130E949C13089580914C
:100FB0000001909101010E94A7180E94C6070895A0
:100FC0000E94A40C0E94D707089592959F709630B6
:100FD00079F010F4925001C09A50923068F4803F3A
:100FE00069F018F4883E40F409C0843F29F406C033
:100FF000883E20F0813F11F080E0089581E008955F
:10100000FC019081818123813481232B31F08F3F3A
:1010100031F481E09F3F19F403C081E001C080E01A
:1010200080FD07C0808191810E946D090E94E507C3
:10103000089580E00895A5E0B0E0E1E2F8E00C94C6
:10104000B2202596E2E00C94CE20A6E0B0E0EBE2E0
:10105000F8E00C94B2202696E2E00C94CE2008959D
:1010600008950E94300808950E94310808950E9452
:1010700034089093C3018093C20108950E943708F9
:1010800008952091C2013091C301822B932B0E94BD
:10109000370808952091C2013091C3018223932320
:1010A0000E94370808952091C2013091C301822720
:1010B00093270E94370808950E94300808950E94DF
:1010C0005C089093C1018093C001089580E090E096
:1010D0000E945F08089521E030E0A90102C0440F9A
:1010E000551F8A95E2F7CA010E945F08089521E022
:1010F00030E002C0220F331F8A95E2F78091C001D1
:101100009091C101822B932B0E945F08089521E0EA
:1011100030E002C0220F331F8A95E2F72095309508
:101120008091C0019091C101822393230E945F08A6
:10113000089521E030E002C0220F331F8A95E2F7C4
:101140008091C0019091C101822793270E945F087E
:1011500008952091C0013091C101822B932B0E94F0
:101160005F0808952091C0013091C101822393232B
:101170000E945F0808952091C0013091C10182272B
:1011800093270E945F0808950895962F9770A1E015
:1011900001C0AA0F9A95EAF793E0769567959A951C
:1011A000E1F7660F771F660F771FFA01E60FF71F4B
:1011B00040E050E0682F70E090819B01042E02C057
:1011C000369527950A94E2F72170219529272A233D
:1011D000292721934F5F5F4F4430510569F70895E8
:1011E000FB01782F777023E0969587952A95E1F794
:1011F000880F991F880F991FE80FF91F40E050E0F2
:1012000080E0219130E0072E02C0369527950A94A0
:10121000E2F721703327042E01C0220F0A94EAF767
:10122000822B4F5F5F4F4430510559F70895282FA7
:101230009A3070F4883060F4862F622F70E028E0D6
:10124000929F600D711D112448E951E00E94C5086C
:1012500008959A3070F4883060F4292F90E068E99E
:1012600071E038E0239F800D911D11240E94F00849
:10127000089580E00895A0E0B0E0E1E4F9E00C9486
:10128000AB207C010091C0011091C1018091C2018D
:101290009091C301082B192BCFE0D0E0CC24C3944C
:1012A000D12CC6010C2E02C0880F991F0A94E2F7B8
:1012B00080239123892B21F4219798F7B12C07C023
:1012C000BC2EB7018C2F0E94F50F0197A9F38B2D2F
:1012D000CDB7DEB7E9E00C94C720CF93DF93EC01E4
:1012E0000E943B09BE010E94F50FDF91CF91089546
:1012F0001F93CF93DF93EB0190919701992321F0F6
:10130000CB010E946D0913C0882349F0CB010E94D4
:101310003B09182F682FCE010E94170904C0CB018A
:101320000E942909182FBE01812F0E94F50FDF911D
:10133000CF911F9108951F93CF93DF93C091C40164
:1013400016E08091C501C81799F0D0E01C9FF0010C
:101350001D9FF00D1124EA53FE4F4081518162819F
:101360007381848195810E9425082196C770E9CFF9
:10137000DF91CF911F9108954091F6015091F701AF
:101380006091F8017091F9018091FA019091FB014F
:101390000E94250808950F931F93CF93DF938091A8
:1013A000FB0182958F7009F05AC08091F801882363
:1013B00009F455C08091C4011091C5016091F601F6
:1013C0007091F701C091F901D091FA0191E06F3F5E
:1013D00009F090E0292F06E0811709F440C020971A
:1013E00021F07F3F21F030E003C031E001C0322F17
:1013F00090E030FD31C0089FF001099FF00D1124ED
:10140000DF01AA53BE4F11963C911197371324C0A8
:101410003C91361321C012963C91129731111CC099
:1014200013964D915C9114974C1B5D0B483C5105F4
:1014300098F48091FB018F7080618093FB01E553EC
:10144000FE4F80818F708061808386EF91E00E94E3
:1014500095070E949B0903C001968770BDCFDF915D
:10146000CF911F910F910895A1E1B0E0EAE3FAE076
:101470000C94A9208C0185E0F801DE011D960190F5
:101480000D928A95E1F7F801E2809091F601609162
:10149000F7012091F9013091FA012115310531F060
:1014A0006F3F31F481E09F3F19F403C081E001C038
:1014B00080E0F82FF1709F2E80FD40C1F80140813F
:1014C0005181A380B48086EFC82E81E0D82EF090A1
:1014D000F801F501E21BF30BFF2009F4DAC080915B
:1014E000FB01E83CF10508F096C0282F207F09F0A9
:1014F00053C0561313C0491311C0FE2CE1100EC087
:101500008F7080618093FB010E94BC09C6010E941C
:1015100095078091FB01F80185834DC1A114B104A9
:1015200031F05F3F31F481E04F3F19F403C081E0B7
:1015300001C080E080FD03C081E08E2502C080E014
:1015400090E0F82FF170FF2E80FF1CC08091C40145
:101550002091C50136E0821709F40BC190E0389F55
:10156000F001399FF00D1124EA53FE4F61815613AB
:1015700006C06081461303C06281E61203C0019673
:101580008770E9CFFE2CEE2009F415C18091FB0194
:1015900081608093FB0154C0561306C0491304C0F8
:1015A000E11002C0F80199C0C8010E940008882318
:1015B00061F1EE2051F12091FB01822F82958F7015
:1015C00090E0029774F08091F6019091F70198876E
:1015D0008F831986BB86AA862C87CE0107960E9428
:1015E000950786E0F801A6EFB1E001900D928A958B
:1015F000E1F70E94CB090E94BC090AC0561711F1FD
:10160000C8010E94000881112CC0C8010E949507E2
:10161000FF24F394D0C0282F207F81F77A2DB98A38
:10162000A88A6E2D89890E941B0886EF91E00E948E
:10163000950786E0F60111928A95E9F70E94BC09A8
:10164000F12CB9C04913DCCFE110DACFF801858362
:10165000C8010E94950786E0F60111928A95E9F784
:10166000AAC0EE2091F22091FB01822F82958F700B
:1016700090E002970CF4B5CF8091F6019091F701BC
:101680009A8389831B82BD82AC822E83CE01019610
:10169000A6CFE83CF10508F044C0FE2CEE2009F48A
:1016A000B4CF561330C049132EC02091FB0120FD4A
:1016B00021C0822F82958F70482F50E0411551052F
:1016C000C9F0F80125834F30510541F08F5F982F05
:1016D0009295907F822F8F70892B8583C8010E94FD
:1016E000950786E0F801A6EFB1E001900D928A958A
:1016F000E1F73CC086E0F801A6EFB1E001900D9261
:101700008A95E1F758C0C8010E940008811169CF8D
:101710008091FB0181608093FB01C8010E949507C5
:101720004AC07A2DB98AA88A6E2D89890E941B0821
:1017300086E0F60111928A95E9F718C0EE2009F4C7
:1017400064CFC8010E940008F82E882309F45DCFF9
:1017500086E0F801A6EFB1E001900D928A95E1F7DD
:1017600086EF91E00E9427040E94CB090E94BC09E9
:1017700022C04D875E878D859E850E946D09292F29
:1017800022952F70223028F49F7039F0811105C006
:101790000BC0243028F49F7049F4805E883020F01C
:1017A000C8010E9495079F2CF92C05C0F80195816E
:1017B000907F99F7F9CF8F2D6196EBE00C94C520BF
:1017C000ACE0B0E0E6EEFBE00C94B1204F8358872C
:1017D00069877A878B879C87CE0107960E94340A97
:1017E0008823D1F09F8188852A853B85232B31F082
:1017F0008F3F31F481E09F3F19F403C081E001C0C5
:1018000080E080FD47C04F81588569857A858B854A
:101810009C850E9425083EC086E0FE013796DE01C9
:10182000119601900D928A95E1F7FF81E8856A850E
:101830007B856115710531F0EF3F31F481E0FF3FA9
:1018400019F403C081E001C080E080FD23C0209135
:10185000C50130E0C9010196877099274091C40104
:1018600050E084179507F1F1F983EA837D836C8357
:1018700096E0929FD001939FB00D1124AA53BE4FC2
:10188000FE01319601900D929A95E1F78093C50182
:101890000E949B0916E08091C4019091C5018917AF
:1018A00071F1189FC00111248A539E4F0E94340A7F
:1018B000882329F1E091C4011E9FF0011124EA530D
:1018C000FE4F4081518162817381848195810E94A4
:1018D00025088091C40190E0019687709927809334
:1018E000C401D9CF0E94E0071092C5011092C40133
:1018F000E6EFF1E086E0DF011D928A95E9F72C968C
:10190000E3E00C94CD2080911C028595859585950A
:10191000089580911C028770089590911C02977021
:1019200081E009F480E0089580913F02089590914C
:101930003F02892B80933F020895809590913F024A
:10194000892380933F02089510923F020895909159
:101950003E02892B80933E020895809590913E022D
:10196000892380933E02089510923E02089580914B
:101970001D02089508950E94BA0C08950E94BB0CA0
:1019800008959091940292FF08C090911D029817BB
:1019900021F080931D020E94BE0C089580911D02CB
:1019A000882329F010921D0280E00E94BE0C089549
:1019B000CF93DF93E0910001F091010180913F020C
:1019C0008083E0910001F0910101908180913E02BD
:1019D000892B808380911D02882381F0E091000192
:1019E000F09101019081892B808380910001909179
:1019F00001010E94F51781110E94CE0CC0910001D7
:101A0000D091010140E250E06CEF71E0CE010E9404
:101A1000ED20892B59F080E2FE01ACEFB1E001909E
:101A20000D928A95E1F7CE010E948317DF91CF9145
:101A300008950E94BA0C08959091940292FF11C0EB
:101A400098E0899F90011124262B20931C020E946C
:101A5000770880911C028595859585950E94190DC2
:101A600008950E947708089510921C0280E00E9459
:101A7000190D089520911C028095822380931C02E9
:101A8000982F977099F430E0482F082E000C550BD2
:101A90002417350759F09091940292FF07C085955D
:101AA000859585950E9487080E94340D0895909130
:101AB000940292FB222720F9281769F080FB92F903
:101AC0009093940280919302909194020E949F0DB2
:101AD00082E00E943A0D08958091940282FB88274B
:101AE00080F991E089270E94570D089581E00E94B6
:101AF000570D089580E00E94570D08956FEF7FEF16
:101B000080E090E00E942F21089580E090E00E9404
:101B10000B2121E0873E9E4F09F020E0822F08959F
:101B200082E090E00E940321089583E090E00E940B
:101B30000321089584E090E00E940B210895BC01E8
:101B400084E090E00E942F210895AB01BC018FE05A
:101B500090E00E9423210895AB01BC0183E190E055
:101B60000E942321089560E070E0CB010E94AC0D3B
:101B7000089560E070E0CB010E94A50D0E94B30DB6
:101B8000089567EE7EEF80E090E00E942F2160E0F4
:101B900082E090E00E94112160E083E090E00E94EA
:101BA00011211092C3011092C20160E074E184E03F
:101BB00090E00E942F2160E086E090E00E941121D9
:101BC0006FEF87E090E00E94112140E050E0BA0101
:101BD00088E090E00E94232160E08DE090E00E9488
:101BE000112140E050E0BA0188E190E00E942321F9
:101BF00060E087E190E00E94112140E050E0BA01EE
:101C00008CE190E00E94232160E070E080E290E0AF
:101C10000E942F2140E050E0BA0188E190E00E944C
:101C200023210E94B90D08950E94C10D0895682FC7
:101C30008EE090E00E94112108950E947C1960932B
:101C4000500270935102809352029093530260931A
:101C50004C0270934D0280934E0290934F02089570
:101C600081E008950E94300E089508950E94350E77
:101C700008950E94350E08950E94390E08950E941D
:101C8000350E08950E943F0E08950E94350E089566
:101C900089ED90E10E946C170E94450E0E94420E51
:101CA00008950E94360E0E94350E08950E94DC10A1
:101CB0000E94BA0308950E9467190E94AC110E9405
:101CC000560E0E943C0E0895AAE0B0E0EAE6FEE05F
:101CD0000C94AA200E94C21182E4E82E82E0F82E21
:101CE000670100E0F60111916F01802F0E94FA1048
:101CF00081270F5F0A3019F08823A1F322C08111D8
:101D000020C00E9470198C01809140029091410284
:101D10000817190709F450C08FEF89838A831B8243
:101D20000E9470198160782F9D838C8349815A812C
:101D30006B818D810E94E603109341020093400263
:101D40003BC08091540281FD0E9400110E94320E1E
:101D5000A82E10E0812F0E94FA10B82EF701C08043
:101D6000C82611F100E0DD24D3948C2D8D21B1F033
:101D7000AA20A1F00E831F8391E08B2D8D2109F401
:101D800090E098870E9470198160782F9A878987E0
:101D90004E815F8168858A850E94E6030F5FDD0CB6
:101DA000083019F7F701B0821F5FFFEFEF1AFF0A43
:101DB0001A3081F60E941D0E0E94DD130E94CD0391
:101DC0002A96EAE00C94C620CF93DF930E94FA0F84
:101DD000EC01811520E59207E0F5811530E49307C9
:101DE00008F09FC0803E910528F58D3C910508F0D4
:101DF00096C0883A910570F4853A910508F085C03F
:101E00008130910509F47EC008F4DCC0049708F025
:101E1000DCC0D8C0813C910508F0D4C0C85AD0E0DD
:101E2000CC0FDD1FC85BDE4F0990D881C02DCE01DD
:101E30009464CCC0811540E2940708F0B8C08115C5
:101E400051E0950708F0C1C0883E910508F4BDC077
:101E5000B9C0803662E5960720F5803472E59707B1
:101E600008F06CC0C03282E5D80708F05EC0C1152A
:101E700092E5D90708F489C02C2F2695269560E2B3
:101E8000269F90011124C37081E090E002C0880F6A
:101E9000991FCA95E2F7E901C82BD92BCE019D689D
:101EA00095C0803A22E59207E0F48F71C03832E5A0
:101EB000D30708F059C08695869570E2879F9001F8
:101EC00011249C2F9370C1E0D0E0AE0102C0440FFA
:101ED000551F9A95E2F7EA01DA68C9018C2B9D2B10
:101EE00075C0803C42E5940708F445C0803E9245A9
:101EF00008F068C0CF71DD27DC2FCC27CE01806FC2
:101F0000906A64C081E090E061C0C55AD0E0C658D4
:101F1000DE4F8881C82FD0E0CE01906457C0906515
:101F200055C0DF70CE01906A51C0CF718C2F90E008
:101F3000D82FCC27CE01816F906A48C08F718695CB
:101F4000869570E2879FA00111249C2F937021E059
:101F500030E0B90102C0660F771F9A95E2F7CB0116
:101F60009C68842B952B32C090E0D82FCC27CE01D3
:101F7000846F906A2BC08F710E9496108F7190E0D1
:101F8000D82FCC27CE01906221C08C2F8F710E9458
:101F9000961095E0D695C7959A95E1F7CF70D0E069
:101FA000DC2FCC27D069BE01682BCB010FC08D2F51
:101FB0008F710E949610DD27D0628F719E01382BA1
:101FC000C90104C080E090E001C0CE01DF91CF9153
:101FD00008957A3038F4683028F4462F672F0E942D
:101FE000D402089580E090E008950E94E90F0E94D5
:101FF000E40E08958238910569F1B0F481339105BA
:1020000009F475C048F48932910509F467C08A3231
:10201000910509F471C008958533910509F459C0FB
:1020200089339105B9F00895833E910589F138F41B
:10203000803E9105D1F0823E910529F10895863EBA
:102040009105C9F1873E9105D9F1843E910509F0CA
:102050006CC027C02091930220FD57C021FD55C0C0
:102060002091940223FD5BC008958091930280FD2E
:1020700048C08091940280FF48C08091930284FD03
:1020800046C083EE51C08091930282FF3CC0F5CFE1
:102090008091930282FD37C08091940280FD35C00B
:1020A000ECCF8091940281FF36C08091930284FD31
:1020B0002EC087EE39C08091930283FF2AC0F5CFEE
:1020C0008091930283FD25C08091940281FD23C0FD
:1020D000ECCF8091930285FD22C01FC080919302B6
:1020E00085FD1BC08091940283FF19C00AC08091B6
:1020F000930286FD16C017C08091930286FD13C01F
:1021000010C089E311C082EE0FC080EE0DC080E0E8
:102110000BC086EE09C084EE07C085E305C089E2E6
:1021200003C08AE201C081E390E008959091930298
:1021300092FF0DC0282F2871283019F4877F846002
:1021400006C0282F2471243011F48B7F886093FF00
:102150000DC0282F2871283119F4877E846106C0AC
:10216000282F2471243111F48B7E886120919402F0
:1021700020FF0DC0382F3871383019F4877F816007
:1021800006C0382F3171313011F48E7F886021FF05
:102190000DC0282F2871283119F4877E816106C06F
:1021A000282F2171213111F48E7E886194FD877E64
:1021B000089580E0089508950E94850D811102C060
:1021C0000E94140E0E94900D809354020E949A0D5A
:1021D00090939402809393020E94DB100E94950DCD
:1021E00090E00E943E088091C0019091C1010E9440
:1021F0005C080895E82FF0E0E156FD4F80810895D6
:10220000089580EA8A95F1F7089500C008950E9424
:102210000111089508950E940A1108950E940B115A
:1022200008950E940A1108950E9411110895F894CA
:10223000E82FE295EF70F0E031A1282F2F7081E0B8
:1022400090E001C0880F2A95EAF7982F9095932384
:1022500091A392A1892B82A3789408950F931F9341
:10226000CF93DF93C5E8D1E089918F3F11F00E94B1
:10227000171181E0CF38D807B9F7CDE7D1E005E8ED
:1022800011E089918F3F11F00E9417110C171D0763
:10229000C1F7DF91CF911F910F910895A0E0B0E0B9
:1022A000E4E5F1E10C94AC208C01C62FD0E0CE0126
:1022B0008B579E4F7C01FC0190819F3F09F447C0E2
:1022C000D62EF894E92FE295EF70F0E081A19F708F
:1022D00021E030E001C0220F9A95EAF7822B81A31A
:1022E00082A12095282322A378940E940511EDE76E
:1022F000F1E045E851E031E0C12C21912F3F89F018
:10230000A22FA295AF70B0E090968C9190E02F70C4
:1023100002C0959587952A95E2F780FD02C0832F2C
:1023200001C080E0C82A330F4E175F0731F7F7016D
:1023300080818F3F11F00E94171161E0C11001C030
:1023400060E08D2D0E940711C00FD11FC882CDB74C
:10235000DEB7E8E00C94C8200E942E118AE0EFE975
:10236000F2E0DF01982F1D929A95E9F7E5E9F2E096
:10237000DF011D928A95E9F78AE00E94FD110E9413
:1023800024030895AAE0B0E0E8ECF1E10C94AF205A
:102390008E010F5F1F4F8AE0F80111928A95E9F7CD
:1023A000F12C6F2DC8010E944E11F394FAE0FF1238
:1023B000F8CF4AE050E0B80185E992E00E94ED20B4
:1023C00021E0009709F420E0892B41F08AE0F80130
:1023D000A5E9B2E001900D928A95E1F74AE06FE934
:1023E00072E085E992E00E94FE11182F0E942703F7
:1023F000812F2A96E5E00C94CB200895EF92FF926E
:102400000F931F93CF93DF937C018B01C42F222363
:1024100049F081E0809357020E9470199093560210
:102420008093550280915702811102C080E01AC04A
:1024300080915502909156020E9488190597B0F339
:10244000D0E0AE01B701C8010E94ED20892B39F020
:10245000AE01B701C8010E94FA2081E001C080E00E
:1024600010925702CDB7DEB7E6E00C94CA200E9466
:102470005B1B0E945B0E0E94681B08950E946D1BEF
:102480000E94640E0E94871B08950E9407190E94F3
:10249000411B0E94480E0E9437120E943E120E9469
:1024A000510EFBCF80915E0280FF06C06091070154
:1024B00070E0660F771F26C081FF04C0609107019E
:1024C00084E005C082FF07C06091070188E0689F33
:1024D000B001112417C090915D029923D1F0609151
:1024E0000601961788F72091070188E0289F900140
:1024F0001124929FA001939F500D112470E0CA01F6
:102500000E9488206038710540F46115710519F446
:1025100006C068E070E0862F08958FE7089581E097
:10252000089580915E0280FF08C06091030170E011
:10253000759567957595679521C081FF06C0609177
:10254000030170E07595679519C082FF04C0609122
:10255000030170E010C090915C02992399F06091A2
:1025600002019617A0F780910301899FC0011124F1
:1025700070E00E9488206038710540F46115710593
:1025800019F406C061E070E0862F08958FE7089582
:1025900081E008958D3C21F40E945212819504C07F
:1025A0008E3C29F40E9452128093620208958F3C5F
:1025B00021F40E945212819504C0803D29F40E94AA
:1025C0005212809361020895893D19F40E9491127C
:1025D00005C08A3D31F40E94911281958093630277
:1025E00008958B3D21F40E949112819504C08C3D89
:1025F00029F40E9491128093640208959FE2980F3B
:10260000983078F421E030E0A90102C0440F551F52
:102610009A95E2F7CA0190916002892B809360023B
:1026200008958D3D21F480915E0281600BC08E3D46
:1026300021F480915E02826005C08F3D29F4809173
:102640005E02846080935E0208958D3C39F490911F
:10265000620297FF35C01092620259C08E3C29F485
:10266000909162021916BCF32BC0909161028F3CCD
:1026700029F497FF25C01092610249C0803D19F4EA
:102680001916CCF31DC090916302893D29F41916E7
:10269000BCF4109263023BC08A3D19F497FF10C04E
:1026A000F8CF8B3D39F49091640297FF09C01092E6
:1026B00064022DC08C3D21F4909164021916BCF384
:1026C0009FE2980F983080F421E030E0A90102C029
:1026D000440F551F9A95E2F7CA01809590916002C8
:1026E00089238093600213C08D3D21F480915E02A6
:1026F0008E7F0BC08E3D21F480915E028D7F05C0E0
:102700008F3D29F480915E028B7F80935E028091E1
:102710006102811106C080916202811102C0109293
:102720005D0280916302811106C080916402811173
:1027300002C010925C0208950E94701920916102FB
:10274000211104C020916202222321F090935B02A8
:1027500080935A0220916302211104C020916402E7
:10276000222321F090935902809358028FE592E042
:102770000E949D170895EFE5F2E086E0DF011D92CB
:102780008A95E9F710925D0210925C0210925E0247
:102790000895FC01828181110DC0838181110AC0DD
:1027A0008481811107C091E08581811101C090E091
:1027B000892F01C081E081700895A6E0B0E0E3EECA
:1027C000F3E10C94B12086E0EFE5F2E0DE01119632
:1027D00001900D928A95E1F71092610210926202C7
:1027E00010926302109264028B81811104C08C816B
:1027F000882309F45FC080915A0290915B020E9485
:102800008819AC0190915D02992339F0209108015B
:1028100030E02417350758F04DC0209109018AE0B7
:10282000289F900111242417350718F043C09F3FBB
:1028300019F09F5F90935D021B81112361F00E944C
:102840005212111614F09FEF01C091E0989F902D45
:102850001124909361021C81112361F00E94521295
:10286000111614F09FEF01C091E0989F902D112454
:1028700090936202309161023323E1F02091620271
:102880002223C1F045EB3403C0011124992319F030
:102890009093610203C081E08093610235EB2303D2
:1028A000C0011124992319F09093620203C081E0C2
:1028B000809362028D81811104C08E81882309F486
:1028C0005FC080915802909159020E948819AC0112
:1028D00090915C02992339F02091040130E0241793
:1028E000350758F04DC0209105018AE0289F9001DE
:1028F00011242417350718F043C09F3F19F09F5F3C
:1029000090935C021D81112361F00E9491121116B7
:1029100014F09FEF01C091E0989F902D11249093A7
:1029200063021E81112361F00E949112111614F0AE
:102930009FEF01C091E0989F902D11249093640225
:10294000309163023323E1F0209164022223C1F02D
:1029500045EB3403C0011124992319F090936302CD
:1029600003C081E08093630235EB2303C00111248F
:10297000992319F09093640203C081E0809364026C
:10298000BE016F5F7F4F8FE592E00E94B918811101
:1029900005C08FE592E00E94C91381110E949C132B
:1029A00086E0FE013196AFE5B2E001900D928A9586
:1029B000E1F72696E3E00C94CD20CF93DF93FC0162
:1029C000DB0112968C91882309F4DDC09F013057FA
:1029D0002332310508F0D8C0EF010E949A0D909380
:1029E000940280939302FE01E150F047E232F10538
:1029F00020F4EE59FF4F0C949C208091930281604B
:102A0000AAC0809194028860B2C0809193028260D3
:102A1000A2C08091930220C08091930288609BC0E5
:102A2000809194021EC0809194028260A0C0809127
:102A30009302806190C08091930280628CC08091EB
:102A40009302806488C00E94E007809193028068AE
:102A500082C080919302886084607DC080919402DE
:102A60008260816084C0809193028E7F74C0809167
:102A70009402877F7CC0809193028D7F6CC080918F
:102A8000930220C080919302877F65C08091940259
:102A90001EC0809194028D7F6AC0809193028F7EC8
:102AA0005AC0809193028F7D56C0809193028F7B94
:102AB00052C00E94E007809193028F774CC08091B2
:102AC0009302877F8B7F47C0809194028D7F8E7F9A
:102AD0004EC08091930282FB222720F991E0922739
:102AE00090FB82F990FB83F936C080919402982F75
:102AF000909591708E7F892B90FB81F938C08091E1
:102B0000930286FB222720F991E0922790FB86F919
:102B100022C00E94E0078091930287FB222720F9C0
:102B200091E0922790FB87F916C081E001C080E018
:102B30000E94170E1EC08091930284FB222720F969
:102B400091E0922790FB84F906C080919302982F20
:102B5000909590FB80F9809393020BC08091940232
:102B600083FB222720F991E0922790FB83F9809341
:102B7000940280919302909194020E949F0D0E9472
:102B8000E00780E001C081E0DF91CF910895A0E0EF
:102B9000B0E0EDECF5E10C94AD20E82FF0E0E75665
:102BA000FD4FD490282F26952695269530E0F901E3
:102BB000E75CFC4F0491877010E0082E02C0159569
:102BC00007950A94E2F701701127F901E75DFC4FC0
:102BD000E490F12C082E02C0F594E7940A94E2F7F1
:102BE00091E0E922FF24F901E75EFC4FC491D0E0B7
:102BF00002C0D595C7958A95E2F7C170DD2701150A
:102C0000110519F081EE0E943704E114F10419F066
:102C100086EE0E9437048D2D0E946505E114F104B3
:102C200019F086EE0E94E1040115110519F081EEFC
:102C30000E94E104CD2B19F08CE20E946505CDB70E
:102C4000DEB7E7E00C94C920EF92FF920F931F9339
:102C5000CF93DF938C01F62E8AE0E82EF801849161
:102C6000882309F457C0813009F042C0E801219659
:102C7000FE018491813031F42196FE0184910E94FD
:102C8000650539C0823039F4E8012296FE0184914D
:102C90000E94370430C0833039F4E8012296FE01E7
:102CA00084910E94E10427C0843029F5E80122962E
:102CB000FE01249180E090E030E0205331092A3079
:102CC000310560F4E89EA001E99E500D1124C90170
:102CD000840F951F2196FE012491EECF009759F0A5
:102CE000EFE9FFE03197F1F700C000000197F6CF60
:102CF0000E94C715E8018E010F5F1F4F8F2D88239B
:102D000009F4ACCFEFE9FFE03197F1F700C0000024
:102D10008150F5CFCDB7DEB7E6E00C94CA20CF9353
:102D2000DF9386319C4741F5EB010E94940C982F6C
:102D30008A812091000130910101882379F09A7AEB
:102D400081E009F480E080936502911102C069E29C
:102D500001C065E3C9010E948B180AC08091650219
:102D6000811102C069E201C065E3C9010E9499189E
:102D70000E94D80C80E001C081E0DF91CF910895DE
:102D80000F931F93CF93DF93C42FD22FFC01828127
:102D90008823B1F0409368020E94701990936702F3
:102DA0008093660280E28C0F883008F04DC0C770B7
:102DB00081E001C0880FCA95EAF70E946F0544C000
:102DC00080916802481330C080916602909167023A
:102DD0000E948819883C910538F510E21D0FCD1727
:102DE000B9F080E28C0F883040F4C77081E001C0F8
:102DF000880FCA95EAF70E947605183010F581E031
:102E00009D2F977001C0880F9A95EAF70E946F0571
:102E1000802F0E9465051830B8F4D77081E001C09A
:102E2000880FDA95EAF70AC080E28C0F883060F4E8
:102E3000C77081E001C0880FCA95EAF70E94760545
:102E400003C0802F0E946505DF91CF911F910F91E4
:102E500008950F93FC01E851FC47E730F10590F528
:102E6000CB01EC57FF4F0C949C2006E221EE41EE83
:102E70006AE17CE723C007E225EE45EE6BE17CE7E3
:102E80001DC006E221EE40EE68E17CE717C007E2D4
:102E900025EE44EE69E17CE711C006E221EE42EE48
:102EA0006CE17CE70BC007E225EE46EE6DE17CE7C6
:102EB00005C008E221E045EE6EE17CE70E94C01605
:102EC00080E008C0FB018281882319F0109268021B
:102ED00001C081E00F91089590939101809390013A
:102EE000089590936E0280936D020895E0916D02B3
:102EF000F0916E02309729F00190F081E02D099554
:102F0000089580E00895FC01A0916D02B0916E02D9
:102F1000109791F080911201882341F080919302E3
:102F200087FF04C08081818386E08083CF01129671
:102F3000ED91FC91139709950895E0916D02F09140
:102F40006E02309739F022E0DC012C930480F58189
:102F5000E02D09950895A3E0B0E0E1EBF7E10C94D2
:102F6000B22020916B0230916C0228173907A1F032
:102F700090936C0280936B02E0916D02F0916E026F
:102F8000309751F023E029839B838A830680F78161
:102F9000E02DCE01019609952396E2E00C94CE2017
:102FA000A3E0B0E0E6EDF7E10C94B22020916902D5
:102FB00030916A0228173907A1F090936A02809332
:102FC0006902E0916D02F0916E02309751F024E0B9
:102FD00029839B838A830680F781E02DCE010196A9
:102FE00009952396E2E00C94CE20FC013296809164
:102FF0001201882331F08091930287FF02C09EE185
:1030000001C096E080E0915028F021912223D9F36D
:103010008F5FF9CF0895662351F120911201222389
:10302000E9F02091930227FF19C0462F4695469557
:1030300046954E31E0F4677021E030E002C0220F87
:10304000331F6A95E2F7FC01E40FF11D828190E0E5
:103050002823392381E0232B69F409C0FC0132962F
:1030600008962191621729F0E817F907D1F780E057
:10307000089581E008959C01FC0132969FEF80E065
:103080004191461789F09F3F19F4411101C0982FD3
:103090008F5F8630A9F79F3F39F0F901E90FF11DE5
:1030A00097FDFA956283089508959C012A5F3F4F2A
:1030B000FC014281461301C01282019682179307D8
:1030C000B9F70895262F2695269526952E3168F472
:1030D000FC01E20FF11D677021E030E001C0220F1A
:1030E0006A95EAF78281282B22830895262F269558
:1030F000269526952E3170F4FC01E20FF11D6770C4
:1031000021E030E001C0220F6A95EAF72095828124
:1031100028232283089520911201222339F020913F
:10312000930227FF03C00E94621808950E943B1873
:10313000089520911201222339F02091930227FF54
:1031400003C00E94761808950E9455180895209192
:103150001201FC013296222331F08091930287FF05
:1031600002C08EE101C086E0DF011D928A95E9F779
:10317000089546E050E00E94ED2021E0892B09F4FB
:1031800020E0822F089508950E94C318089583E0D7
:1031900080936F020E94C4180895811102C081E0DB
:1031A00001C082E080936F020E94C41808950E94BB
:1031B000CD18089581E080936F020E94C41808958D
:1031C0000E94DA18089508950E94E31808950E9455
:1031D000E41808950E94E31808950E94E3180895E2
:1031E0000E94E3180895CF930E94ED180E94C21127
:1031F0000E94EA18C0E08C2F0E94FA10811104C0CE
:10320000CF5FCA30C1F701C081E0CF91089585B783
:10321000806885BF85B7806885BF08951F920F922B
:103220000FB60F9211248F939F93AF93BF9380910A
:103230007002811113C08091A9029091AA02A091FD
:10324000AB02B091AC024196A11DB11D8093A902C1
:103250009093AA02A093AB02B093AC02BF91AF913E
:103260009F918F910F900FBE0F901F901895809196
:10327000B102843031F10E949A031092700220E46E
:1032800088E190E00FB6F894A895809360000FBE97
:103290002093600083B7817F846083BF83B78160A0
:1032A00083BF7894889583B78E7F83BF0FB6F894D9
:1032B000A895809160008861809360001092600002
:1032C0000FBE08950E94E0070E949F03089582E0C8
:1032D00084BD93E095BD9AEF97BD80936E000895ED
:1032E0002FB7F8948091A9029091AA02A091AB0205
:1032F000B091AC022FBF08952FB7F8946091A90246
:103300007091AA028091AB029091AC022FBF0895F8
:103310009C014FB7F8948091A9029091AA02A091C4
:10332000AB02B091AC024FBF821B930B089578940F
:103330001F920F920FB60F9211248F939F93AF930A
:10334000BF938091A9029091AA02A091AB02B09183
:10335000AC020196A11DB11D8093A9029093AA020F
:10336000A093AB02B093AC02BF91AF919F918F91AC
:103370000F900FBE0F901F90189581E08093E00092
:1033800080E28093D8001092C9008FE19EE40197FB
:10339000F1F700C0000087E090EBDC018093BA02F7
:1033A0009093BB02A093BC02B093BD029CE088E165
:1033B0000FB6F894A895809360000FBE90936000BC
:1033C000FFCF9CE088E10FB6F894A8958093600049
:1033D0000FBE90936000FFCF8091910208959B01F2
:1033E0009091B1029430F1F48F708093E9008FEFE7
:1033F0009091E800815095FD06C095ED9A95F1F702
:1034000000008111F5CF8091E80085FF0BC0BA0163
:10341000C90140E050E00E94FA1B8091E8008E77DD
:103420008093E800089543E050E0BC0182E00E94F0
:10343000EF19089546E050E0BC0182E00E94EF19C8
:103440000895CF93DF93EC0180911201811105C0A3
:1034500048E050E0BE0181E00BC08091930287FFFD
:1034600003C040E282E002C048E081E050E0BE01DB
:103470000E94EF1980E2FE01A1E7B2E001900D92F7
:103480008A95E1F7DF91CF9108958091B002811183
:1034900009C00E94851D0E94E21D8091E2008460A7
:1034A0008093E20008951092B00208950E94E018FF
:1034B00008956091AD0281E0611101C080E00E9439
:1034C000C71808959091B10281E0943009F080E02E
:1034D0006091AD020E94CD18089542E061EC81E058
:1034E0000E94FE1C42E261EC82E00E94FE1C909170
:1034F000B10281E0943009F080E06091AD020E9459
:10350000D71808958091B302833009F461C030F474
:10351000813071F0823009F49BC008958A3009F43B
:1035200087C08B3009F46CC0893009F0A9C020C075
:103530008091B202813A09F0A3C08091E800877FB0
:103540008093E8008091B6029091B702892B21F414
:1035500060E281E792E003C060E080E090E070E02C
:103560000E943F1C8091E8008B778093E8000895CB
:103570008091B202813209F083C08091B6029091AD
:10358000B702029708F07CC08091E800877F8093A3
:10359000E8008091E80082FD05C08091B1028111B0
:1035A000F8CF6EC02091F3008091F20090E0922B52
:1035B000029731F48091F100813011F0863021F4CE
:1035C0008091F100809391028091E8008B7754C044
:1035D0008091B202813A09F053C08091B602909175
:1035E000B702892B09F04CC08091E800877F809357
:1035F000E8008091E80080FFFCCF8091120137C085
:103600008091B2028132E1F58091B6029091B702C9
:10361000892BB1F58091E800877F8093E8000E94B4
:10362000331D8091B402809312010E94E007089537
:103630008091B202813221F58091E800877F8093EA
:10364000E8000E94331D8091B50280939202089594
:103650008091B202813AA1F48091E800877F809343
:10366000E8008091E80080FFFCCF80919202809377
:10367000F1008091E8008E778093E8000E94331D6E
:10368000089584B7877F84BF0FB6F894A89580917A
:103690006000886180936000109260000FBE90E02F
:1036A00080E80FB6F89480936100909361000FBE9C
:1036B0000E94DA1808950E94851D0E94E21DE2EE24
:1036C000F0E080818460808378940E946D2008956A
:1036D0008AE091E00E94711708958091B1028530CF
:1036E000A9F48091B102853079F40E943719809154
:1036F000AF028823B1F30E94F318882391F30E944C
:10370000E41B0E94E007EDCF0E946219089508951E
:103710000E948B1B0895292F332723303105C9F0D0
:1037200060F42130310581F02230310509F044C0C8
:103730008BE390E02FE733E043C021323105E1F025
:103740002232310549F138C082E190E02AEB33E0C2
:1037500037C099278130910549F028F0029761F52B
:10376000E9E4F3E005C0EBE7F3E002C0E5E6F3E0EF
:10377000849190E09F0124C06115710541F0613092
:103780007105D1F489E090E02AEA33E019C089E0BC
:1037900090E021E933E014C06115710541F061301A
:1037A000710551F486EB90E02CEC33E009C080E425
:1037B00090E022E834E004C080E090E020E030E0D7
:1037C000FA0131832083089580E189BD82E189BDBA
:1037D00009B400FEFDCF8091D8008F7D8093D80082
:1037E0008091E00082608093E0008091E00081FDA4
:1037F000FCCF0895A0E0B0E0E0E0FCE10C94AC2048
:10380000EC018B017A010E94521D811133C0E11439
:10381000F10439F0F70180819181081B190BC80F61
:10382000D91FC12CD12C0115110519F18091E80087
:1038300085FD16C08091E8008E778093E800E11442
:10384000F10449F0F70180819181C80ED91ED1821F
:10385000C08285E00FC00E94521D882321F30AC058
:1038600089918093F10001501109FFEFCF1ADF0A0F
:10387000DACF80E0CDB7DEB7E8E00C94C820209125
:10388000B8023091B9022617370748F06115710563
:1038900039F42091E8002E772093E80001C0B901A7
:1038A000FC0120E06115710579F18091B102882356
:1038B000F1F18530F1F18091E80083FD3CC0809109
:1038C000E80082FD2EC08091E80080FFEBCF2091C0
:1038D000F3008091F20090E0922B6115710551F098
:1038E0008830910538F421912093F10061507109DD
:1038F0000196F3CF21E0089709F020E08091E800DD
:103900008E778093E800CECF2111CFCF0AC080916F
:10391000B102882361F0853061F08091E80083FD79
:103920000AC08091E80082FFF2CF80E0089582E033
:10393000089583E0089581E008952091B8023091C0
:10394000B9022617370748F06115710539F420913F
:10395000E8002E772093E80001C0B901FC0120E0C7
:103960006115710591F18091B102882309F440C07D
:10397000853009F43FC08091E80083FD3DC080910F
:10398000E80082FD2FC08091E80080FFE9CF209100
:10399000F3008091F20090E0922B6115710559F0CF
:1039A0008830910540F424912093F10031966150C4
:1039B00071090196F2CF21E0089709F020E080918B
:1039C000E8008E778093E800CBCF2111CCCF0AC0DE
:1039D0008091B102882361F0853061F08091E80028
:1039E00083FD0AC08091E80082FFF2CF80E0089555
:1039F00082E0089583E0089581E00895982F97303C
:103A000068F59093E900981739F07091EC002091D7
:103A1000ED005091F00003C0242F762F50E021FDDF
:103A200002C09F5FECCF3091EB003E7F3093EB0004
:103A30003091ED003D7F3093ED003091EB0031602F
:103A40003093EB007093EC002093ED005093F00066
:103A50002091EE0027FDE5CF80E008958F708093E0
:103A6000E90081E008958091B20287FF11C0809142
:103A7000E80082FD05C08091B1028111F8CF11C02C
:103A80008091E8008B770BC08091B102882349F0C8
:103A90008091E80080FFF8CF8091E8008E778093D6
:103AA000E80008952091E4003091E50095E640910A
:103AB000EC00842F817040FF23C08091E80080FDDE
:103AC0001DC08091B102882399F0853099F08091D2
:103AD000EB0085FD11C04091E4005091E5002417F2
:103AE000350729F3915011F09A01E1CF84E0089550
:103AF00082E0089583E0089581E0089580E00895CC
:103B00004091E80042FFDDCF08950E94F41D0E941D
:103B1000FC1DE0EEF0E0808181608083E8EDF0E064
:103B200080818F77808319BCA7EDB0E08C918E7F68
:103B30008C9380818F7E80831092B00208950F93C2
:103B40001F93CF93DF930E94F41D0E94FC1DC8EDCC
:103B5000D0E088818F778883888180688883888196
:103B60008F7D888319BC1092B1021092AD02109221
:103B7000AF021092AE0200EE10E0F80180818B7F60
:103B8000808388818160888342E060E080E00E94D9
:103B9000FE1CE1EEF0E080818E7F8083E2EEF0E0BB
:103BA000808181608083808188608083F80180814A
:103BB0008E7F8083888180618883DF91CF911F9180
:103BC0000F910895E8EDF0E080818F7E8083E7ED2E
:103BD000F0E080818160808384E082BF81E0809317
:103BE000B0020E949F1D0895E8EDF0E080818E7F75
:103BF00080831092E20008951092DA001092E100A2
:103C000008951F920F920FB60F9211242F933F9396
:103C10004F935F936F937F938F939F93AF93BF93D4
:103C2000EF93FF938091E10082FF0BC08091E2004F
:103C300082FF07C08091E1008B7F8093E1000E94AA
:103C40006C208091DA0080FF1FC08091D80080FF37
:103C50001BC08091DA008E7F8093DA008091D900BA
:103C600080FF0DC080E189BD82E189BD09B400FEFD
:103C7000FDCF81E08093B1020E94451A05C019BCB6
:103C80001092B1020E94531A8091E10080FF19C086
:103C90008091E20080FF15C08091E2008E7F8093CA
:103CA000E2008091E20080618093E2008091D80080
:103CB00080628093D80019BC85E08093B1020E9495
:103CC000591A8091E10084FF30C08091E20084FFA6
:103CD0002CC080E189BD82E189BD09B400FEFDCF21
:103CE0008091D8008F7D8093D8008091E1008F7EF5
:103CF0008093E1008091E2008F7E8093E2008091CA
:103D0000E20081608093E2008091AD02882311F08F
:103D100084E007C08091E30087FD02C081E001C01C
:103D200083E08093B1020E94621A8091E10083FFD8
:103D300029C08091E20083FF25C08091E100877F48
:103D40008093E10082E08093B1021092AD028091F5
:103D5000E1008E7F8093E1008091E2008E7F80936E
:103D6000E2008091E20080618093E20042E060E046
:103D700080E00E94FE1C8091F00088608093F0003B
:103D80000E94561AFF91EF91BF91AF919F918F9131
:103D90007F916F915F914F913F912F910F900FBE47
:103DA0000F901F9018951F920F920FB60F9211242B
:103DB0002F933F934F935F936F937F938F939F9333
:103DC000AF93BF93CF93DF93EF93FF93C091E9003D
:103DD000CF708091EC00D82FD17080FDD0E8109288
:103DE000E9008091F000877F8093F00078940E9432
:103DF000171F1092E9008091F00088608093F00016
:103E0000CD2BCF70C093E900FF91EF91DF91CF915F
:103E1000BF91AF919F918F917F916F915F914F91E2
:103E20003F912F910F900FBE0F901F901895AAE20F
:103E3000B0E0EDE1FFE10C94B120E2EBF2E0809123
:103E4000F100819322E0EA3BF207C9F70E94821A4F
:103E50008091E80083FF2EC18091B2029091B3025D
:103E6000492F50E04A30510508F024C1FA01E557C6
:103E7000FF4F0C949C20803821F0823809F01AC141
:103E800008C08091AE029091AF02992389F08260C0
:103E90000FC08091B6028F70873008F00BC18093FD
:103EA000E9008091EB0085FB882780F91092E900FA
:103EB0009091E800977F9093E8008093F100109232
:103EC000F100D1C0282F2D7F09F0F4C0882319F00C
:103ED000823061F0EFC08091B402813009F0EAC015
:103EE000933009F080E08093AF022EC08091B4023D
:103EF00081112AC08091B6028F702FEF280F2630D3
:103F000008F0D8C08093E9002091EB0020FF1CC08E
:103F1000933021F48091EB00806214C09091EB000B
:103F200090619093EB0021E030E0A90102C0440FC2
:103F3000551F8A95E2F74093EA001092EA008091BB
:103F4000EB0088608093EB001092E9008091E8001C
:103F5000877F8093E8000E94331DACC08111AAC006
:103F60001091B4021F778091E3008078812B8093B9
:103F7000E3008091E800877F8093E8000E94331D72
:103F80008091E80080FFFCCF8091E30080688093FF
:103F9000E300111102C082E001C083E08093B1020E
:103FA00089C08058823008F085C08091B402909119
:103FB000B5028C3D53E0950779F583E08A838AE268
:103FC00089834FB7F894DE01139620E03EE051E27A
:103FD000E32FF0E050935700E49120FF03C0E295F7
:103FE000EF703F5FEF708E2F90E0EA3010F0C796D1
:103FF00001C0C0968D939D932F5F243149F74FBF29
:104000008091E800877F8093E8006AE270E0CE014B
:1040100001960E943F1C16C06091B6027091B702D3
:10402000AE014F5F5F4F0E94881BBC01892B09F4D2
:1040300041C09091E800977F9093E80089819A8130
:104040000E949D1C8091E8008B778093E80032C02D
:10405000803881F58091E800877F8093E800809127
:10406000AD028093F1008091E8008E7772CF8111CC
:1040700021C08091B4029091B50299270297D4F49F
:104080008091E800877F8093E8008091B40280935C
:10409000AD020E94331D8091AD02811106C0809156
:1040A000E30087FD02C081E001C084E08093B1029B
:1040B0000E946D1A8091E80083FF0AC08091E80099
:1040C000877F8093E8008091EB0080628093EB0013
:1040D000AA96E3E00C94CD200895CF938091B1028D
:1040E0008823A1F0C091E900CF709091EC00892F56
:1040F000817090FD80E8C82B1092E9008091E80063
:1041000083FD0E94171FCF70C093E900CF910895DF
:1041100097FB072E16F4009407D077FD09D00E9474
:10412000D92007FC05D03EF4909581959F4F0895C6
:10413000709561957F4F0895EE0FFF1F0590F491E4
:10414000E02D09942F923F924F925F926F927F924F
:104150008F929F92AF92BF92CF92DF92EF92FF9297
:104160000F931F93CF93DF93CDB7DEB7CA1BDB0B43
:104170000FB6F894DEBF0FBECDBF09942A883988E8
:1041800048885F846E847D848C849B84AA84B984EF
:10419000C884DF80EE80FD800C811B81AA81B981FB
:1041A000CE0FD11D0FB6F894DEBF0FBECDBFED010F
:1041B0000895AA1BBB1B51E107C0AA1FBB1FA6176E
:1041C000B70710F0A61BB70B881F991F5A95A9F7C0
:1041D00080959095BC01CD010895FB01DC0104C0E0
:1041E0008D910190801921F441505040C8F7881BEF
:1041F000990B0895FB01DC0102C001900D92415022
:104200005040D8F70895F999FECF92BD81BDF89A34
:10421000992780B50895A8E1B0E042E050E00C9401
:104220003721262FF999FECF92BD81BDF89A0197CB
:1042300000B4021639F01FBA20BD0FB6F894FA9AEE
:10424000F99A0FBE08950396272F0E9412210E940B
:104250001121252F0E941221242F0C941221019646
:10426000272F0E9412210C941121DC01CB01FC01AB
:10427000F999FECF06C0F2BDE1BDF89A319600B4BF
:0E4280000D9241505040B8F70895F894FFCFCA
:10428E001E02280850011E0A1401EC19211A1A1ACE
:10429E00131A01E200E900EA00B500B600B700CD3E
:1042AE00008301CC008A0192019401210223022491
:1042BE00022502260227022A02B300B4006F007004
:1042CE00009F01CB01818283E200E900EA00B50084
:1042DE00B600B700CD008301CC008A019201940193
:1042EE002102230224022502260227022A02B300FB
:1042FE00B4006F0070009F01CB0181828390919278
:10430E00939495969730313233343536376667004D
:020000020000FC
:047000000C948D3E21
:047028000C94B73DD0
:10702F0012010002FF010020EB03F42F0000010208
:10703F00030109021200010100803209040000005F
:10704F00000000000C03410054004D0045004C00AF
:10705F001603410054006D00330032005500340018
:10706F004400460055000C0331002E0030002E0066
:10707F0030000403090416010C0100000C0000018C
:02708F006C7F14
:1070920012BD01BDF89A00B5089501E00895F9996D
:1070A200FECF12BD01BD20BDFA9AF99AF6CFF99929
:1070B200FECF0C944938F80104910895F8013491F7
:1070C20031962491890108950091610000930C0189
:1070D20000E80093610001E00093610005BF02E057
:1070E20005BF0C9486380091D70001600093D70049
:1070F200A89507EF04BF0091600000610093600053
:1071020000E00093600001E008950E94AA3D0E9401
:10711200B53DFDCF0CD00F7708D0006806D00061D6
:1071220004D0016028D0789408950093D80000918B
:10713200D8000895FCDF00621ED04CD009B500FFD4
:10714200FDCFF5DF0F7D17D00091E0000E7F009399
:10715200E0000091E000077F0093E0000091E20070
:1071620001600093E2000091E20008600093E200F7
:1071720078940C94743B0093D800089500910D010B
:10718200002359F40091D90000FF07C0D0DF006846
:10719200F2DF01E000930D01CDDFE0E2F2E00081D9
:1071A200018100FF0DC0008111811E7F11830083C8
:1071B20001E00093EA0000E00093EA0000931E025F
:1071C20000E00093E9000091E80003FF02C00E9482
:1071D200F23B0895A89539D000E40093600000E0E6
:1071E200009381000093800010E0009385000093DB
:1071F200840001E006BB00918100036000938100DE
:107202000091600007FFFCCF00E80093600010933C
:107212008100A89507EF04BF18D010936000209159
:1072220084003091850010938100109380001093A8
:1072320085001093840001E006BB2D3D354010F01F
:1072420002E101C002E009BD089500916000006101
:107252000093600008950E94AD3E239741D100E063
:1072620000930901B5D104811581012B51F437D165
:1072720000910701002309F4B9C000E0009307015F
:10728200B5C058D102FFFDCF37D1068335D1009367
:107292000F0132D1009310012FD1009311012CD193
:1072A2000093120129D10093130102852091130149
:1072B20030911201409111015091100116811A95DD
:1072C20041F01250A9F01A9599F11A9509F473C078
:1072D2008BC010910F01113011F411E001C010E0C8
:1072E200138799D00C3F11F414D17FC077D17DC0A0
:1072F20092D010910F01112329F01A9549F01A9595
:10730200A9F073C010E013870C3F09F06EC0ECCFF8
:1073120056D103C04CD109F468C00D911C9144D1DF
:107322000F3FC1F305E0009309015FC011E0EBCF0D
:10733200D2D029F00250E1F10A9541F056C0FDD0B9
:107342000E94A33F0FEF00930A014FC0552319F08B
:107352005A9579F04AC04ED00DEF04BF74D0EAD0EE
:1073620003FFFDCF67D051D04AD008E00093600000
:10737200FFCF40D068D0DED003FFFDCF5BD03FD03F
:1073820044D00FEF1FE004C009811A810150104060
:1073920009831A8309811A81012BB1F700E800934E
:1073A200610000910C01009361000C940000FFCF7A
:1073B20001E003871AC08FD019F00A9539F015C081
:1073C200535098F4BAD002E000870FC0505339F0FE
:1073D2005A9541F05F52B1F35A95A1F306C002E00B
:1073E2000883F0CF01E0FCCFA8D079D02396E4E067
:1073F2000C94BA3E01E005BF00E005BF089500917C
:10740200D8000F770093D800089509B50D7F09BD04
:1074120000E009BD08955183408333832283109194
:10742200E8001B7F1093E8001091E8001F7710938B
:10743200E80008955DD053D0F8940091E000016017
:107442000093E000089579D04AC0219749D0009175
:107452000601035019F00250B9F00BC03CD021F0E4
:107462000A9559F00A9529F400910A010C3F19F482
:1074720050D02196089567D0FCCF0091010100936E
:10748200F100009100010AC01091100124D019F0FE
:107492000A9549F0EECF135018F400E00093F10082
:1074A2001ED044D0E6CF105339F01A9539F01F524E
:1074B20041F01A9541F0F4CF08E5F0CF00E006D094
:1074C200EDCF02E0FCCF04E001D0E8CF10E020E0F5
:1074D20030E00C94113F00910F010023089521C068
:1074E2000BD008D007D00093040106D00093050109
:1074F20021D00BC000D008830091F10008950091C3
:10750200EB0000620093EB0015D0077F0093E800C8
:107512000895F5DF02E00093080103E000930901FA
:10752200089559D007D000FFFDCF089503D002FF80
:10753200FDCF03C00091E8000895FCDF0B7FE6DF7A
:10754200F9DF0F77E3CF0E94AC3E42D038D006C0BD
:107552002BD00093F1002BD059F43DD0082F092BEA
:10756200A9F0E8DF02FD12C0E5DF00FFFDCF4424F1
:10757200042D4394003289F300910B0100230D91F5
:107582001C9131F311970E945838E3CFD3DF00FFEB
:10759200FDCF21D0CFDF00FFFDCFCCDF02FFFDCF3B
:1075A200CCDFE5E00C94B93E11970C945C380D9158
:1075B2001C910F5F1F4F1C930E93019708958281B8
:1075C200938100811181801B910B0196DF01089547
:1075D200E0E0F1E00895AEDF0E7F98CF0E94A93E71
:1075E200F7DF80819181A081B181AF710481158122
:1075F20000521040048315830AC000910B0100233E
:1076020031F4A301920103E911E00E943B3F47D00C
:10761200B8F1662477242C0111C06EDFF301ED5618
:10762200FE4F008301E0600E00E0701E01960091A3
:10763200F200002311F033D0B8F47FDF30D0E8F24B
:10764200F301B096E238F040C0F674DF02FFFDCFDE
:107652000091F200BDDF24813581201B304024835C
:107662003583E5CF49DFAA95AA23E1F700910B0103
:10767200013099F62091F1008C010E945038D6CF4A
:1076820004811581012B21F055DF02FFFDCF55DF6B
:10769200A2DF50DF00FFFDCFE8E00C94B63EE0E051
:1076A200F1E0028113810817190708952091EB0078
:1076B20021602093EB000093EC000091ED0002703A
:1076C200012B0093ED000091ED0002600093ED00AC
:1076D2001091EE00012F000F00E0001F0895412FCE
:1076E2000093E900089500E009D000FD05C000E024
:1076F200F7DF10E202E0DACF00E00895F1DF009157
:10770200EB0008950F770132A9F5112369F11A955B
:1077120059F01A9561F01A9569F01A95F9F01A95CF
:10772200C1F01A95D9F024C00E942C3920C00E94C1
:10773200263A1DC029D00091090123D001E01FD0B3
:1077420020D0009108011BD00E94923A0E94973AE1
:107752000EC01AD00091080114D007C002E00093B5
:10776200080100E0009309010FD00E94923A03C081
:107772000E94803A02C001E0089500E0089501D01D
:1077820000E00093F10008950091E800077F009364
:10779200E800089508950350F9F4112339F01A9579
:1077A20051F01A9581F01A9599F016C004E016D09E
:1077B20001E810E703C011D003E510E7E7E1F2E0CA
:1077C20000831183D8CF06E109D00FE510E7F6CF89
:1077D20004D005E710E7F2CFD0CF0CE000931A02F5
:1077E200089527D120D100931D02E1D0212F11232A
:1077F20029F12A95E9F02250F1F0225099F02A95C8
:1078020049F0225061F02A9581F02A95E1F02A95FB
:10781200E9F023C0003809F44FC00C94833B0038D0
:10782200E1F7C8C00023C9F71EC00023B1F72DC07D
:10783200033098F744C1033080F70BC1003868F376
:10784200033858F7C9C0013841F77BC1013051F400
:10785200FCD0BFD000FD06C0FCCF0E94833B0023BA
:1078620009F41ED008951091E3001078DCD00F7750
:10787200012B0093E300E9D0ACD000FFFDCF0091D3
:10788200E30000680093E300089591D0123040F4C1
:107892000FD010931E02DAD000911E020C94CB3B43
:1078A2000091EB0001D004C000620093EB00089548
:1078B2000091E800077FC0C0BA93AA93229700E024
:1078C2000093190274D0AFD0202F2A9519F02A956F
:1078D200E9F022C002E100931A020FE210E7E7E1A9
:1078E200F2E0008311839DD008839DD00983E0DFFD
:1078F20000911A0210E02881398102171307A8F4B7
:107902000F7181F401E00093190211C002E10093AA
:107912001A0201E410E7E3CF0E94CC3B002319F7DF
:107922008ED040C01093190202C020931A027ED05A
:10793200A7E1B2E001C08AD000911A02002309F146
:1079420048D004FD1EC045D000FD03C042D004FF54
:10795200FACF10E0012F1395003281F0ED91FC91E6
:107962001197049133D02D913C912F5F3F4F3C935F
:107972002E93FD0103810A95038361F72AD004FF48
:10798200DACF00911902013039F423D004FD04C08A
:1079920020D000FFFDCF5AD01CD004FFFDCF46D02F
:1079A20018D00B7F49D02296A991B99108951091D0
:1079B200F10008957DDF00911E0208D047D009D062
:1079C2000F773AD006D002FFFDCFBFC00093F1007F
:1079D20008950091E800089524D010911D021058D6
:1079E20029F01A9589F01A9591F019C061DF00917A
:1079F2001C02ECDF00E0EADF29D0EBDF02FFFDCF63
:107A020018D0E7DF0F770CC053DF00E0F2CF51D080
:107A12000F7710E0F801E55EFD4F0081EACF0FD04D
:107A22000BC001D000D00091F1000895D2DF0F7E8B
:107A320003C00091E8000B7F0093E80008950091D5
:107A4200EB0032DFC6DF077F089532DFC2DF0E7F31
:107A5200F3CF00911D02002329F00A9509F10A953E
:107A620031F01EC0E0DF0A9561D0D9F41AC061D0AE
:107A7200B9F4D9DF0F7711F416D01BD00093E900C7
:107A82001091EB0010FF0BC00ED010E01093E90034
:107A920021E0F801E55EFD4F20834FD003C042D0C4
:107AA20045D0CFDFC9CF1091EB0010621093EB00ED
:107AB20008951091E800177F1093E800089500914F
:107AC2001D02002311F4AFDF02C0013011F4B7DF51
:107AD200B3CF023031F52DD019F52091F1002F7777
:107AE2002093E90023D000FF19C081F01FD000616C
:107AF200DCDE01E010E0422F0E949F3E0093EA008C
:107B020000E00093EA0012D00860CFDE0BD030E034
:107B1200F901E55EFD4F008310D0DACF03D0D7CF55
:107B2200BFDE089500E00093E90008950091EB00A4
:107B3200089579DF3CDF00230895BADE4ADF0E7F25
:107B4200089583DF46DF02FFFDCF73DF42DF0F7749
:107B520073CF0091D70001600093D7000E948B3849
:107B620000E000931F0208950C94BF388A93FA93A1
:107B7200EA933A922A921A920A927A936A935A93BF
:107B82004A933A932A931A930A938FB70091DA0091
:107B920000FF24C00091D80000FF20C00EEF009328
:107BA200DA000091D90000FF11C001E000930D013D
:107BB200ABD0026096D09AD00860A2D00E949B38C7
:107BC2000091E0000E7F0093E00008C000E0009307
:107BD2000D0100931E0298D0046083D07FD002FF73
:107BE20005C084D002FF02C00BEF75D077D000FF32
:107BF2001BC07CD000FF18C001E000930E016AD0C8
:107C020083D000626ED00EEF6FD0006179D06ED05B
:107C12000F7D76D00091D80000620093D80009B59C
:107C22000D7F09BD00E009BD59D004FF20C05ED020
:107C320004FF1DC009B500FD05C00E94EB3809B55F
:107C420000FFFDCF0091D8000F7D0093D80042D0F5
:107C520000910E01002359F04CD00FEE45D00F7E5B
:107C620052D000643ED042D001604AD042D036D0D9
:107C720005FF0FC03BD005FF0CC000E000930E01D2
:107C820035D00F7E3DD00FED2FD00F7D3CD0006858
:107C920028D024D003FF0DC029D003FF0AC000E082
:107CA20000931F0207EF17D00E94743B2DD0116082
:107CB20018D08FBF09911991299139914991599100
:107CC200699179910990199029903990E991F991E6
:107CD200899118950FEE0093E10008950091E1005B
:107CE20008951183008308950093E1000091E2005A
:107CF20008950091E200006203D00091E200086062
:107D02000093E2000895FCDFE0E2F2E000811181DD
:107D1200089500008895FECF01E60DBF02E00EBF78
:107D2200C2EED2E00E947438002311F00E94D33ECA
:107D32000E9465380E948A3E0C948A3E4A951AF047
:107D4200000F111FFBCF0895BA92AA929A928A92BB
:107D52007A926A925A924A92BA93AA939A938A937D
:107D62000895BB84AA84998488847F806E805D8014
:107D72004C80BB81AA8199818881F0E00FB6F8948A
:107D8200CE0FDF1F0FBE089520E006D0E9F7089559
:107D9200259102D0E9F708952D9301501040202F2C
:107DA200212B089585E890E7FC0105911491FC01CF
:107DB2003296A591B491FC01349625913491422FCB
:107DC200432B19F0F901E4DF01C0DEDF069610E76C
:107DD2008139910748F308952F930CD02F9101D048
:107DE20008953CD0F12FE02F45E047BFE89536D00B
:107DF20012D0089533D0F12FE02F43E047BFE8952A
:107E02002DD008952BD0F12FE02F43E047BFE89506
:107E120025D001D0089522D041E147BFE8951EC088
:107E22001DD0F12FE02F41E247BFC895002D16C0AB
:107E320015D0F12FE02F49E047BFC895002D0EC0A5
:107E4200F32FE22F012E102E41E047BFE89506C026
:107E520005D0002E29E027BFE89500C0022E27B7E3
:107E620020FDFCCF202D0895022E27B726FDFCCF42
:107E7200202D08950E94A53E22974801C901DA01EA
:107E820010C05BD001E0A00E00E0B01E00E4A0161E
:107E920000E0B00608F440C0830120E030E00E9418
:107EA200F23E0A2F0B2B09F440C0082F0F7710E087
:107EB2002C01401A510A320100E4A02E03C00A2FFD
:107EC2000B2BE1F04816590680F0F40101914F01A5
:107ED2000983119729F001914F010883119711C06D
:107EE200F2013196049108830CC0F20104910983D6
:107EF2003196E817F907A1F7F401EDCF1BD00883FB
:107F020019839201088119810E94213F16D0AA94F7
:107F1200B1F62301AA24BB240DD0312F0F3F3F4FCE
:107F220009F4AFCF83011DD0B7CF01E02296ECE078
:107F32000C94B23E82010C945F3802E0400E00E0E5
:107F4200501E08959A938A9380E090E08C0109D0A4
:107F520080589F4F8F3F0FE69007C0F38991999108
:107F6200089520E030E00C94FB3E00000000000089
:067F720000000000FC000D
:107FE4000C94ED3E0C94113F0C94193F0C94213FDA
:0C7FF4000C94F23E0C94033F0C94293FC7
:040000030000700089
:00000001FF

